{
  "contractName": "TasksContract",
  "abi": [
    {
      "inputs": [],
      "stateMutability": "nonpayable",
      "type": "constructor"
    },
    {
      "anonymous": false,
      "inputs": [
        {
          "indexed": false,
          "internalType": "uint256",
          "name": "id",
          "type": "uint256"
        },
        {
          "indexed": false,
          "internalType": "string",
          "name": "title",
          "type": "string"
        },
        {
          "indexed": false,
          "internalType": "string",
          "name": "description",
          "type": "string"
        },
        {
          "indexed": false,
          "internalType": "bool",
          "name": "done",
          "type": "bool"
        },
        {
          "indexed": false,
          "internalType": "uint256",
          "name": "createdAt",
          "type": "uint256"
        }
      ],
      "name": "TaskCreated",
      "type": "event"
    },
    {
      "inputs": [],
      "name": "taskCounter",
      "outputs": [
        {
          "internalType": "uint256",
          "name": "",
          "type": "uint256"
        }
      ],
      "stateMutability": "view",
      "type": "function",
      "constant": true
    },
    {
      "inputs": [
        {
          "internalType": "uint256",
          "name": "",
          "type": "uint256"
        }
      ],
      "name": "tasks",
      "outputs": [
        {
          "internalType": "uint256",
          "name": "id",
          "type": "uint256"
        },
        {
          "internalType": "string",
          "name": "title",
          "type": "string"
        },
        {
          "internalType": "string",
          "name": "description",
          "type": "string"
        },
        {
          "internalType": "bool",
          "name": "done",
          "type": "bool"
        },
        {
          "internalType": "uint256",
          "name": "createdAt",
          "type": "uint256"
        }
      ],
      "stateMutability": "view",
      "type": "function",
      "constant": true
    },
    {
      "inputs": [
        {
          "internalType": "string",
          "name": "_title",
          "type": "string"
        },
        {
          "internalType": "string",
          "name": "_description",
          "type": "string"
        }
      ],
      "name": "createTask",
      "outputs": [],
      "stateMutability": "nonpayable",
      "type": "function"
    },
    {
      "inputs": [
        {
          "internalType": "uint256",
          "name": "_id",
          "type": "uint256"
        }
      ],
      "name": "toggleDone",
      "outputs": [],
      "stateMutability": "nonpayable",
      "type": "function"
    }
  ],
  "bytecode": "0x6080604052600080553480156200001557600080fd5b50620000926040518060400160405280601b81526020017f4d69207072696d65726120746172656120646520656a656d706c6f00000000008152506040518060400160405280601481526020017f54656e676f2071756520686163657220616c676f0000000000000000000000008152506200009860201b60201c565b62000487565b600080815480929190620000ac90620003ca565b91905055506040518060a00160405280600054815260200183815260200182815260200160001515815260200142815250600160008054815260200190815260200160002060008201518160000155602082015181600101908051906020019062000119929190620001ae565b50604082015181600201908051906020019062000138929190620001ae565b5060608201518160030160006101000a81548160ff021916908315150217905550608082015181600401559050507f6549102bed7d1bb5ec529ee14e2ca60ffc1f47f66d4cc6ca713220613cc64c256000548383600042604051620001a2959493929190620002c1565b60405180910390a15050565b828054620001bc9062000394565b90600052602060002090601f016020900481019282620001e057600085556200022c565b82601f10620001fb57805160ff19168380011785556200022c565b828001600101855582156200022c579182015b828111156200022b5782518255916020019190600101906200020e565b5b5090506200023b91906200023f565b5090565b5b808211156200025a57600081600090555060010162000240565b5090565b620002698162000348565b82525050565b60006200027c826200032c565b62000288818562000337565b93506200029a8185602086016200035e565b620002a58162000476565b840191505092915050565b620002bb8162000354565b82525050565b600060a082019050620002d86000830188620002b0565b8181036020830152620002ec81876200026f565b905081810360408301526200030281866200026f565b90506200031360608301856200025e565b620003226080830184620002b0565b9695505050505050565b600081519050919050565b600082825260208201905092915050565b60008115159050919050565b6000819050919050565b60005b838110156200037e57808201518184015260208101905062000361565b838111156200038e576000848401525b50505050565b60006002820490506001821680620003ad57607f821691505b60208210811415620003c457620003c362000447565b5b50919050565b6000620003d78262000354565b91507fffffffffffffffffffffffffffffffffffffffffffffffffffffffffffffffff8214156200040d576200040c62000418565b5b600182019050919050565b7f4e487b7100000000000000000000000000000000000000000000000000000000600052601160045260246000fd5b7f4e487b7100000000000000000000000000000000000000000000000000000000600052602260045260246000fd5b6000601f19601f8301169050919050565b610a6a80620004976000396000f3fe608060405234801561001057600080fd5b506004361061004c5760003560e01c8063292a458514610051578063586717301461006d5780638d9776721461008b578063d81ef739146100bf575b600080fd5b61006b6004803603810190610066919061067d565b6100db565b005b6100756101e9565b6040516100829190610779565b60405180910390f35b6100a560048036038101906100a091906106f5565b6101ef565b6040516100b6959493929190610794565b60405180910390f35b6100d960048036038101906100d491906106f5565b610342565b005b6000808154809291906100ed90610922565b91905055506040518060a001604052806000548152602001838152602001828152602001600015158152602001428152506001600080548152602001908152602001600020600082015181600001556020820151816001019080519060200190610158929190610555565b506040820151816002019080519060200190610175929190610555565b5060608201518160030160006101000a81548160ff021916908315150217905550608082015181600401559050507f6549102bed7d1bb5ec529ee14e2ca60ffc1f47f66d4cc6ca713220613cc64c2560005483836000426040516101dd959493929190610794565b60405180910390a15050565b60005481565b6001602052806000526040600020600091509050806000015490806001018054610218906108bf565b80601f0160208091040260200160405190810160405280929190818152602001828054610244906108bf565b80156102915780601f1061026657610100808354040283529160200191610291565b820191906000526020600020905b81548152906001019060200180831161027457829003601f168201915b5050505050908060020180546102a6906108bf565b80601f01602080910402602001604051908101604052809291908181526020018280546102d2906108bf565b801561031f5780601f106102f45761010080835404028352916020019161031f565b820191906000526020600020905b81548152906001019060200180831161030257829003601f168201915b5050505050908060030160009054906101000a900460ff16908060040154905085565b6000600160008381526020019081526020016000206040518060a00160405290816000820154815260200160018201805461037c906108bf565b80601f01602080910402602001604051908101604052809291908181526020018280546103a8906108bf565b80156103f55780601f106103ca576101008083540402835291602001916103f5565b820191906000526020600020905b8154815290600101906020018083116103d857829003601f168201915b5050505050815260200160028201805461040e906108bf565b80601f016020809104026020016040519081016040528092919081815260200182805461043a906108bf565b80156104875780601f1061045c57610100808354040283529160200191610487565b820191906000526020600020905b81548152906001019060200180831161046a57829003601f168201915b505050505081526020016003820160009054906101000a900460ff1615151515815260200160048201548152505090508060600151158160600190151590811515815250508060016000848152602001908152602001600020600082015181600001556020820151816001019080519060200190610506929190610555565b506040820151816002019080519060200190610523929190610555565b5060608201518160030160006101000a81548160ff021916908315150217905550608082015181600401559050505050565b828054610561906108bf565b90600052602060002090601f01602090048101928261058357600085556105ca565b82601f1061059c57805160ff19168380011785556105ca565b828001600101855582156105ca579182015b828111156105c95782518255916020019190600101906105ae565b5b5090506105d791906105db565b5090565b5b808211156105f45760008160009055506001016105dc565b5090565b600061060b6106068461081a565b6107f5565b905082815260208101848484011115610627576106266109fd565b5b61063284828561087d565b509392505050565b600082601f83011261064f5761064e6109f8565b5b813561065f8482602086016105f8565b91505092915050565b60008135905061067781610a1d565b92915050565b6000806040838503121561069457610693610a07565b5b600083013567ffffffffffffffff8111156106b2576106b1610a02565b5b6106be8582860161063a565b925050602083013567ffffffffffffffff8111156106df576106de610a02565b5b6106eb8582860161063a565b9150509250929050565b60006020828403121561070b5761070a610a07565b5b600061071984828501610668565b91505092915050565b61072b81610867565b82525050565b600061073c8261084b565b6107468185610856565b935061075681856020860161088c565b61075f81610a0c565b840191505092915050565b61077381610873565b82525050565b600060208201905061078e600083018461076a565b92915050565b600060a0820190506107a9600083018861076a565b81810360208301526107bb8187610731565b905081810360408301526107cf8186610731565b90506107de6060830185610722565b6107eb608083018461076a565b9695505050505050565b60006107ff610810565b905061080b82826108f1565b919050565b6000604051905090565b600067ffffffffffffffff821115610835576108346109c9565b5b61083e82610a0c565b9050602081019050919050565b600081519050919050565b600082825260208201905092915050565b60008115159050919050565b6000819050919050565b82818337600083830152505050565b60005b838110156108aa57808201518184015260208101905061088f565b838111156108b9576000848401525b50505050565b600060028204905060018216806108d757607f821691505b602082108114156108eb576108ea61099a565b5b50919050565b6108fa82610a0c565b810181811067ffffffffffffffff82111715610919576109186109c9565b5b80604052505050565b600061092d82610873565b91507fffffffffffffffffffffffffffffffffffffffffffffffffffffffffffffffff8214156109605761095f61096b565b5b600182019050919050565b7f4e487b7100000000000000000000000000000000000000000000000000000000600052601160045260246000fd5b7f4e487b7100000000000000000000000000000000000000000000000000000000600052602260045260246000fd5b7f4e487b7100000000000000000000000000000000000000000000000000000000600052604160045260246000fd5b600080fd5b600080fd5b600080fd5b600080fd5b6000601f19601f8301169050919050565b610a2681610873565b8114610a3157600080fd5b5056fea2646970667358221220d3d4d93c0ee2d2ff973f4116f9bbe4097ed714ea5d56c8b230805a5788c86c2a64736f6c63430008060033",
  "immutableReferences": {},
  "source": "// SPDX-License-Identifier: MIT\r\n\r\npragma solidity ^0.8.6;\r\n\r\ncontract TasksContract{\r\n\r\n    uint public taskCounter = 0;\r\n\r\n    constructor(){\r\n        createTask(\"Mi primera tarea de ejemplo\", \"Tengo que hacer algo\");\r\n    }\r\n\r\n    event TaskCreated(\r\n    uint id, \r\n    string title, \r\n    string description, \r\n    bool done, \r\n    uint createdAt\r\n    );\r\n\r\n    struct Task{\r\n        uint id;\r\n        string title;\r\n        string description;\r\n        bool done;\r\n        uint createdAt;\r\n    }\r\n\r\n    mapping (uint => Task) public tasks;\r\n\r\n    function createTask(string memory _title, string memory _description) public {\r\n        taskCounter ++; \r\n        tasks[taskCounter] = Task(taskCounter, _title, _description, false, block.timestamp);\r\n        emit TaskCreated(taskCounter, _title, _description, false, block.timestamp);\r\n    }\r\n\r\n    function toggleDone (uint _id) public {\r\n\r\n        Task memory _task = tasks[_id];\r\n        _task.done = !_task.done;\r\n        tasks[_id] = _task;\r\n    } \r\n}",
  "sourcePath": "C:\\Users\\ferra\\Documents\\TruffleProyects\\contracts\\TasksContract.sol",
  "compiler": {
    "name": "solc",
    "version": "0.8.6+commit.11564f7e.Emscripten.clang"
  },
  "schemaVersion": "3.4.13",
  "updatedAt": "2023-03-07T12:47:45.850Z",
  "networkType": "ethereum",
  "devdoc": {
    "kind": "dev",
    "methods": {},
    "version": 1
  },
  "userdoc": {
    "kind": "user",
    "methods": {},
    "version": 1
  }
}